:1000000086C00000A2C00000A0C000009EC000008A
:100010009CC000009AC0000098C0000096C000007C
:1000200094C0000092C0000090C000008EC000008C
:100030008CC0000017C7000088C0000086C0000008
:1000400084C0000082C0000080C000007EC00000AC
:100050007CC000007AC0000078C0000076C00000BC
:1000600074C0000072C0000070C000006EC00000CC
:100070006CC000006AC0000068C0000066C00000DC
:1000800064C0000062C0000060C000000763423628
:10009000B79BD8A71A39685618AEBAAB558C1D3C19
:1000A000B7CC5763BD6DEDFD753EF6177231BF00DD
:1000B0000000803F08000000BE922449123EABAA17
:1000C000AA2ABECDCCCC4C3E00000080BEABAAAA72
:1000D000AA3E00000000BF000000803F00000000BA
:1000E00000084178D3BB4387D1133D190E3CC3BDF3
:1000F0004282AD2B3E68EC8276BED98FE1A93E4CA0
:1001000080EFFFBE01C4FF7F3F000000000011240C
:100110001FBECFEFD0E4DEBFCDBF11E0A0E0B1E065
:10012000E2EFFBE100E00BBF02C007900D92A638A2
:10013000B107D9F727E0A6E8B1E001C01D92A73DBD
:10014000B207E1F71FD50C94F70D5ACFCF93DF9389
:10015000EC01DBD72091860130918701C9018C0F1A
:100160009D1F8C3D45E0940758F42817390758F433
:10017000E901C857DE4F909387018093860105C03F
:10018000C0E0D0E002C0C0E0D0E00E944D09CE0146
:10019000DF91CF9108950895FC01039692838183A6
:1001A0002FEF3FEF34832383968385839087878364
:1001B00010820895FC01118610860895CF93DF9375
:1001C000FC01DB0121813281E9018A819B81139647
:1001D0009C938E9312978181928115969C938E9316
:1001E00014978A819B81EC017D836C83E9017B8379
:1001F0006A83728361831996FC93EE9318978081CA
:100200008F5F8083DF91CF910895CF93DF93EB01D0
:10021000488159814F3F2FEF520731F4DC01179687
:10022000ED91FC91189717C0FC013396DC011596EF
:100230002D913C911697D9012D913C91421753076E
:1002400050F00280F381E02DA281B3812D913C9189
:1002500042175307B0F7A281B381BB83AA831596D7
:10026000DC93CE931497FD83EC83D383C283998769
:100270008887FC0120812F5F2083DF91CF91089533
:10028000FC01A281B3818481958115969C938E9304
:100290001497A481B5818281938113969C938E9348
:1002A0001297A085B18511968D919C911297E817B0
:1002B000F90731F48481958112969C938E9311975E
:1002C000118610868C9181508C930895813081F035
:1002D000E1ECF0E0808188618083E2ECF0E08081F5
:1002E0008660808383E38093C4001092C5000895E4
:1002F000E9ECF0E0808188618083EAECF0E08081C5
:100300008660808383E38093CC001092CD000895B3
:10031000613041F0E0ECF0E0908195FFFDCF8093FB
:10032000C6000895E8ECF0E0908195FFFDCF809342
:10033000CE000895CF92DF92EF92FF920F931F931A
:10034000CF93DF93FC0101900020E9F73197E81B80
:10035000F90B611119C0FF271E161F06BCF56C01B1
:100360008C010E0F1F1FC0ECD0E0988195FFFDCFD0
:1003700060E0F60181916F01CBDF988196FFFDCFA0
:100380000C151D0591F722C0613001F5FF271E16DF
:100390001F06E4F46C017C01EE0EFF1E00EC10E081
:1003A000C8ECD0E0F801908195FFFCCF888185FFF3
:1003B00004C061E0F6018081ABDF988196FFFDCF3C
:1003C000FFEFCF1ADF0AEC14FD0461F7DF91CF9144
:1003D0001F910F91FF90EF90DF90CF9008958FEED7
:1003E00082B90000009B29C0019B29C0029B29C043
:1003F000039B29C08FED82B90000009B26C0019BA2
:1004000026C0029B26C0039B26C08FEB82B900004A
:10041000009B23C0019B23C0029B23C0039B23C0DE
:100420008FE782B90000009B20C0019B20C0029B87
:1004300020C0039B20C080E0089581E3089584E3F9
:10044000089587E308958AE2089582E3089585E395
:10045000089588E3089580E3089583E3089586E38B
:10046000089589E3089583E2089581E4089582E47C
:10047000089583E4089584E40895181619065CF03D
:100480000895000021503109E1F74F5F5F4F841755
:10049000950719F4089540E050E027E033E0F1CFEC
:1004A0005E9888B95F9A00005F9884E090E0E5CF9D
:1004B000089581E0F5CF089584E690E0DEDF88E3DB
:1004C000EFDF86E0EDDF8FE0EBDF81E0E9DF8AE060
:1004D00090E0D3CF08955E9A88B95F9A00005F9844
:1004E00081E090E0CACF0895813118F48158D8CFC7
:1004F00008958155D5CF08950F931F93CF93DF9320
:10050000182FEB01D6DF8881882351F001E0010F1D
:10051000812FEADF8991DFDF102F88818111F6CFEB
:10052000DF91CF911F910F910895E0E8F0E0808175
:10053000826C8083E1E8F0E08081886180838FE1D4
:100540009EE490938700809386000895EF92FF9237
:100550000F931F93CF93DF938C01EB017A01E6E8B1
:10056000F0E08FE19EE4918380839183808384E631
:1005700090E083DFC230D10521F50530110571F41B
:1005800084E690E07ADF8091860090918700815622
:100590009340909389008093880038C004301105FF
:1005A000A9F584E690E069DF80918600909187004C
:1005B00081569340E80EF91EF0928900E09288007F
:1005C00025C0239719F50530110571F484E690E0F4
:1005D00054DF8091860090918700885592409093D7
:1005E00089008093880012C00430110579F484E6F4
:1005F00090E043DF8091860090918700885592407B
:100600008E199F099093890080938800DF91CF9184
:100610001F910F91FF90EF90089523B12470809166
:100620007207280F209372078091700790917107CD
:10063000019690937107809370078436910540F07E
:10064000209373071092720710927107109270072F
:1006500008951092D507E1DF8AE090E0A2D6FBCFA3
:1006600080917307882329F060E08BE091E062DEDF
:1006700004C060E08DE091E05DDE109273070895A4
:100680001092D307EDDF88EE93E08BD6FBCF6F920D
:100690007F928F929F92AF92BF92CF92DF92EF9212
:1006A000FF920F931F93CF93DF9399DEC82F809112
:1006B000D407823099F028F4882361F0813071F1F9
:1006C000B5C1843009F418C108F484C0853009F438
:1006D000EBC0ACC182E08093D407A8C1CC23D1F099
:1006E00080916F07811101C0E4DEC33231F483E0F1
:1006F0008093D40783E2EFDE0DC0E0916F07F0E056
:10070000E559F84FC0838AE2E6DE81E08093D407A2
:1007100001C0000064DE8111FCCF88C1CC2309F444
:1007200085C180916F078F5F80936F078AE2D3DE68
:1007300080916F07E82FF0E0E559F84FC0838330D0
:1007400008F444C090916B0780910401981327C06E
:1007500090916C0780910501981321C090916D07CD
:100760008091060198131BC090916E07809107013C
:10077000981315C080910801843059F4409102010A
:1007800050910301609100017091010185E090E0BA
:10079000DDDE84E690E071DE85E08093080189DE8D
:1007A00010926F0782E08093D407EBE6F7E00190A8
:1007B0000020E9F73197AF014B56574060E070E0F9
:1007C0008BE697E00E94E10D01C0000008DE811178
:1007D000FCCF2CC1CC2309F429C18C2F7CDE809165
:1007E0006F07E82FF0E0E559F84FC0838F5F8093E3
:1007F0006F07843081F590916B0780910401981305
:1008000015C090916C078091050198130FC09091CD
:100810006D0780910601981309C090916E07809131
:100820000701981303C083E256DE15C010926F07CC
:1008300082E08093D407EBE6F7E001900020E9F72F
:100840003197AF014B56574060E070E08BE697E080
:100850000E94E10D2EDE80916F07853041F48DEB13
:100860008C0F823008F4D7C0C0930401D4C0863006
:1008700008F4D8C0E82FF0E0E150FF4FC083D2C0A9
:1008800084E08093D4070CC085E08093D40708C02F
:1008900010926F0782E08093D4070BDE01C0000046
:1008A0009EDD8111FCCFC2C0CC2309F4BFC001DEA4
:1008B000C13359F482E090E09093010180930001EC
:1008C00066E171E081E018DE0CC0C23351F483E0D0
:1008D00090E090930101809300016FE071E081E06E
:1008E0000BDE10926F0782E08093D40701C00000F6
:1008F00076DD8111FCCF9AC0CC2309F497C08C2FF0
:10090000EADD80916F078F5F80936F07863039F43F
:10091000D0E0E097D0936A07C093690778C087302A
:1009200039F4D0E0E097D0936807C09367076FC0B1
:10093000883009F06CC0D0E0E097D0936607C09390
:100940006507709064070F2EF5E6EF2EF7E0FF2E97
:10095000F02DC0E0D0E0C12CD12C66246394F701C7
:10096000019111917F01BE010D2E000C880B990B96
:100970006CD69B01AC0160E070E080E291E454D75A
:100980004B015C01B801012E000C880B990B5DD660
:10099000A5019401E6D64B015C01B60180E090E030
:1009A00052D69B01AC01C501B401BDD520D66B0167
:1009B0000A30110508F0762C2196C330D10579F65E
:1009C00070926407F5E0CF16F1E0DF0618F081E0E1
:1009D000809364076EDD8091640781110FC0D0920F
:1009E0000301C0920201C5E6D7E08C81805D73DD12
:1009F0008A81805D70DD8881805D6DDD1092640785
:100A000010926F0782E08093D40701C00000E7DCFA
:100A10008111FCCF0BC0C43409F432CFC33409F0C8
:100A20003FCF32CF883009F03BCF32CFDF91CF912B
:100A30001F910F91FF90EF90DF90CF90BF90AF90FC
:100A40009F908F907F906F9008951092D4071FDE33
:100A500089E190E0A6D4FBCF83B191E0282F2170EB
:100A600080FD90E09093750783B1809582708093AC
:100A700074079091D607913039F018F09230A9F1AF
:100A8000089591E09093D607211119C08091080133
:100A9000853059F0409102015091030160910001AD
:100AA0007091010185E090E051DD85E080930801BF
:100AB00082E08093D60781E08093D207089588234F
:100AC000E9F04091020150910301609100017091A1
:100AD000010184E090E03ADD84E08093080182E047
:100AE0008093D6078093D2070895222339F081118D
:100AF00005C081E08093D6071092D2070895109226
:100B0000D607AADF8AE090E04CD4FBCFAF92BF9229
:100B1000CF92DF92EF92FF920F93CF93A12CB12C43
:100B2000C12CD12CE12CF12C082F20E030E045E540
:100B300050E060E271E08FE795E0CBD120E030E05B
:100B400045E550E06CE271E089E293E0C2D120E03B
:100B500030E045E550E06CE371E080E493E0B9D12A
:100B600020E030E045E550E064E471E085E295E0A6
:100B7000B0D1CF910F91FF90EF90DF90CF90BF90C9
:100B8000AF90089580EF81B98FE082B914B88FEFEC
:100B900085B987B918B883EE8AB98CE18BB980E042
:100BA00095DB81E093DBC1DC87DC81E0AFDF84D2C1
:100BB00080E090E0089531E1FC013083319722E23A
:100BC00020833197A3E3A0833197608331977083AB
:100BD00031971082319760E86083319710823197A6
:100BE00062E06083319763E06083319764E0608303
:100BF000319765E06083319766E06083319767E005
:100C00006083319768E06083319769E06083319752
:100C100060E1608331973083319732E130833197DF
:100C200033E13083319734E13083319735E13083DC
:100C3000319736E13083319737E13083319738E1AE
:100C40003083319739E13083319730E23083319707
:100C500031E2308331972083319723E2208331972B
:100C6000408331975083319726E22083319727E2E2
:100C70002083319728E22083319729E2208331971E
:100C800020E32083319721E32083869708951092F3
:100C900089008CE7809388008BE080938100EFE6E9
:100CA000F0E0808182608083A091CE07B091CF0771
:100CB000CD91CDBFDD91DEBFFF91EF91DF91CF915F
:100CC000BF91AF919F918F917F916F915F914F9164
:100CD0003F912F911F910F91FF90EF90DF90CF9058
:100CE000BF90AF909F908F907F906F905F904F904C
:100CF0003F902F901F900F900FBE0F90089581E0AE
:100D000008950F920FB6F8940F921F9211242F920C
:100D10003F924F925F926F927F928F929F92AF928B
:100D2000BF92CF92DF92EF92FF920F931F932F9378
:100D30003F934F935F936F937F938F939F93AF9363
:100D4000BF93CF93DF93EF93FF93A091CE07B09122
:100D5000CF070DB60D920EB60D9278D3A091CE07A7
:100D6000B091CF07CD91CDBFDD91DEBFFF91EF9167
:100D7000DF91CF91BF91AF919F918F917F916F91B3
:100D80005F914F913F912F911F910F91FF90EF90A5
:100D9000DF90CF90BF90AF909F908F907F906F909B
:100DA0005F904F903F902F901F900F900FBE0F902D
:100DB00008950F920FB6F8940F921F9211242F925C
:100DC0003F924F925F926F927F928F929F92AF92DB
:100DD000BF92CF92DF92EF92FF920F931F932F93C8
:100DE0003F934F935F936F937F938F939F93AF93B3
:100DF000BF93CF93DF93EF93FF93A091CE07B09172
:100E0000CF070DB60D920EB60D9285D11FD3A091CE
:100E1000CE07B091CF07CD91CDBFDD91DEBFFF9161
:100E2000EF91DF91CF91BF91AF919F918F917F9182
:100E30006F915F914F913F912F911F910F91FF9073
:100E4000EF90DF90CF90BF90AF909F908F907F906A
:100E50006F905F904F903F902F901F900F900FBE1C
:100E60000F900895A6DF1895CF93DF93EC01E091E2
:100E7000CE07F091CF079383828380917E07909174
:100E80007F07C817D90760F46091CE077091CF072C
:100E900080919407909195076E5F7F4FB6D916C0E9
:100EA0006091CE077091CF07809196079091970738
:100EB0006E5F7F4FAAD98091090190910A01C817EE
:100EC000D90720F4D0930A01C0930901DF91CF9193
:100ED00008954F925F926F927F928F929F92AF92FE
:100EE000BF92CF92DF92EF92FF920F931F93CF9317
:100EF000DF935C014B013A01290181E290E026D9A0
:100F0000EC01892B09F4C6C0C114D10409F0BEC09C
:100F1000C3011CD9988F8F8B009719F4CE013BD950
:100F2000B9C0A30165EA70E04CD6930121503109A4
:100F30008F89988D3C01620E731E48E050E0B40129
:100F4000CE01499645D618A2102F043008F013E0C0
:100F50001E8B6E0182E0C80ED11CC6012BD9CE01BA
:100F60000C9628D9D987C88784E090E0811B910925
:100F70009D878C87DB8BCA8BA201B501C3011BDE69
:100F800099838883E114F10419F0F701D183C083B8
:100F90000FB6F8940F92809180078F5F809380073F
:100FA0008091CE079091CF07892B69F5D093CF0719
:100FB000C093CE07809180078130A1F58AEA97E03F
:100FC000EBD883EB97E0E8D88CEB97E0E5D885EC9D
:100FD00097E0E2D881EA97E0DFD888E997E0DCD8AB
:100FE0008BE897E0D9D882E897E0D6D881EA97E0F5
:100FF000909397078093960788E997E090939507D9
:10100000809394070FC080917B0781110BC0E09102
:10101000CE07F091CF078689081720F0D093CF072D
:10102000C093CE078E8990917D07981710F4809316
:101030007D07909176079F5F9093760790917C074C
:10104000981710F480937C0790E09C01220F331FC7
:10105000220F331F220F331F820F931FB6018655B5
:10106000984FACD80F900FBE80917B07882351F02A
:10107000E091CE07F091CF078689801728F441DEF2
:1010800081E009C081E007C081E005C0D88ECF8A29
:10109000C60147CF8FEFDF91CF911F910F91FF9046
:1010A000EF90DF90CF90BF90AF909F908F907F9008
:1010B0006F905F904F900895AF92BF92CF92DF9262
:1010C000EF92FF920F93A12CB12CC12CD12CE12CCB
:1010D000F12C00E020E030E045E550E061E871E00F
:1010E0008DEE99E0F6DE813041F4F89480937B0731
:1010F00010927F0710927E07CADD0F91FF90EF904C
:10110000DF90CF90BF90AF90089580917A078F5F66
:1011100080937A0708950F931F93CF93DF93809165
:101120007A078111B0C080917E0790917F07019668
:1011300090937F0780937E0780917E0790917F0731
:10114000892B99F5809196079091970720919407A4
:1011500030919507309397072093960790939507C2
:1011600080939407809177078F5F80937707E09152
:101170009607F09197078081811107C08FEF9FEF4D
:1011800090930A018093090110C0E0919607F091B5
:1011900097070580F681E02D0680F781E02D82819A
:1011A000938190930A018093090120917E073091E9
:1011B0007F078091090190910A012817390708F4E7
:1011C00067C0E0919607F09197078081882399F096
:1011D000E0919607F09197070580F681E02DC68192
:1011E000D7818A819B8120917E0730917F072817C4
:1011F0003907F8F419C08FEF9FEF90930A0180939D
:10120000090146C0E0919607F09197070580F681A5
:10121000E02DC681D7818A819B8120917E07309104
:101220007F072817390728F490930A018093090152
:101230002FC08E010E5F1F4FC80122D88C899D8957
:10124000892B19F0CE010C961BD88E8990917C07C2
:10125000981710F480937C0790E09C01220F331FB5
:10126000220F331F220F331F820F931FB8018655A1
:10127000984F0E94DE00E0919607F09197078081D9
:101280008111C0CFB8CF809179078F5F80937907A4
:10129000DF91CF911F910F910895CF92DF92EF923E
:1012A000FF920F931F93CF93DF930FB6F8940F9293
:1012B00080917A07815080937A0780917A07811113
:1012C00062C080918007811132C060C0D70115963D
:1012D000ED91FC911697C681D781CE010C960E94A4
:1012E00040018E010E5F1F4FC8010E9440018E8990
:1012F00090917C07981710F480937C0790E09C01F4
:10130000220F331F220F331F220F331F820F931F11
:10131000B8018655984F0E94DE00E091CE07F0910B
:10132000CF079E898689981758F0DC2C09C0D12CEC
:101330000F2EFBE8EF2EF7E0FF2EF02DCC24C39408
:10134000F70180818111C2CF80917907882379F0DC
:1013500080917907882391F0DEDE809179078150B2
:1013600080937907809179078111F6CF07C0F1E06A
:10137000DF1621F080917807813039F410927807D8
:10138000C0DC81E003C080E001C080E00F900FBEB0
:10139000DF91CF911F910F91FF90EF90DF90CF9051
:1013A0000895CF93DF93EC01892B99F0AEDE809105
:1013B0007E0790917F07C80FD91F8091CE0790912B
:1013C000CF0702960E944001CE014EDD66DF8111FB
:1013D00001C097DCDF91CF9108950F2EF2E8EF2E38
:1013E000F7E0FF2EF02DCAEAD7E08091810788232D
:1013F00041F18BDED7011C9150DF112311F10FB6A3
:10140000F8940F92D7011596ED91FC9116970681ED
:101410001781C80102960E94400180918007815087
:1014200080938007809181078150809381070F907E
:101430000FBEF8018789908D0E94CB00C8010E94E1
:10144000CB008881823088F25CDCCFCF80917A0734
:10145000811113C080917C0790E0FC01EE0FFF1F0B
:10146000EE0FFF1FEE0FFF1F8E0F9F1FFC01E655B3
:10147000F84F8081882329F01BC081E08093780792
:10148000089580917C07815080937C0780917C0730
:1014900090E0FC01EE0FFF1FEE0FFF1FEE0FFF1F8E
:1014A0008E0F9F1FFC01E655F84F8081882349F37A
:1014B00080917C0790E09C01220F331F220F331F85
:1014C000220F331F280F391FD901A655B84F119687
:1014D000ED91FC9112970280F381E02D1296FC931E
:1014E000EE9311972355384FE217F30729F4228121
:1014F0003381FD0132832183FC01EE0FFF1FEE0FCC
:10150000FF1FEE0FFF1F8E0F9F1FFC01E655F84FC8
:101510000180F281E02D868197819093CF0780939F
:10152000CE0708955058BB27AA270ED0E0C0D1D0CF
:1015300030F0D6D020F031F49F3F11F41EF4C6C035
:101540000EF4E095E7FBBCC0E92FE2D080F3BA17B8
:10155000620773078407950718F071F49EF5FAC0C7
:101560000EF4E0950B2EBA2FA02D0B01B9019001BE
:101570000C01CA01A0011124FF27591B99F0593F02
:1015800050F4503E68F11A16F040A22F232F342F4A
:101590004427585FF3CF469537952795A795F04098
:1015A0005395C9F77EF41F16BA0B620B730B840BAD
:1015B000BAF09150A1F0FF0FBB1F661F771F881F65
:1015C000C2F70EC0BA0F621F731F841F48F48795BD
:1015D00077956795B795F7959E3F08F0B3CF9395AC
:1015E000880F08F09927EE0F97958795089598D062
:1015F00088F09F5790F0B92F9927B751A0F0D1F0FC
:10160000660F771F881F991F1AF0BA95C9F712C085
:10161000B13081F09FD0B1E008959CC0672F782F42
:101620008827B85F39F0B93FCCF3869577956795F1
:10163000B395D9F73EF490958095709561957F4F5D
:101640008F4F9F4F0895E89409C097FB3EF4909503
:101650008095709561957F4F8F4F9F4F9923A9F08B
:10166000F92F96E9BB279395F6958795779567951A
:10167000B795F111F8CFFAF4BB0F11F460FF1BC05E
:101680006F5F7F4F8F4F9F4F16C0882311F096E9F1
:1016900011C0772321F09EE8872F762F05C066239F
:1016A00071F096E8862F70E060E02AF09A95660F58
:1016B000771F881FDAF7880F9695879597F9089511
:1016C00097F99F6780E870E060E008959FEF80ECF5
:1016D000089500240A941616170618060906089598
:1016E00000240A9412161306140605060895092EFE
:1016F0000394000C11F4882352F0BB0F40F4BF2B6D
:1017000011F460FF04C06F5F7F4F8F4F9F4F0895AC
:1017100057FD9058440F551F59F05F3F71F04795A2
:10172000880F97FB991F61F09F3F79F08795089587
:10173000121613061406551FF2CF4695F1DF08C0A6
:10174000161617061806991FF1CF869571056105C3
:1017500008940895E894BB2766277727CB0197F96B
:1017600008950BD0C4CFB5DF28F0BADF18F0952369
:1017700009F0A6CFABCF1124EECFCADFA0F3959F1F
:10178000D1F3950F50E0551F629FF001729FBB2768
:10179000F00DB11D639FAA27F00DB11DAA1F649F14
:1017A0006627B00DA11D661F829F2227B00DA11DC7
:1017B000621F739FB00DA11D621F839FA00D611D4D
:1017C000221F749F3327A00D611D231F849F600D6E
:1017D000211D822F762F6A2F11249F5750408AF0A7
:1017E000E1F088234AF0EE0FFF1FBB1F661F771F33
:1017F000881F91505040A9F79E3F510570F060CF6F
:10180000AACF5F3FECF3983EDCF38695779567951A
:10181000B795F795E7959F5FC1F7FE2B880F911D50
:101820009695879597F90895FA01EE0FFF1F309668
:101830002105310599F16115710561F48038BFE327
:101840009B0749F168949038810561F08038BFEFBB
:101850009B0741F0992342F5FF3FE1053105210542
:1018600011F1E8940894E795D901AA2329F4AB2F44
:10187000BE2FF85FD0F310C0FF5F70F4A695E0F7BD
:10188000F73950F019F0FF3A38F49F779F930CD056
:101890000F9007FC905808953EF018CF60E070E07C
:1018A00080E89FE308954FE79F775F934F933F93BF
:1018B0002F939ED02F913F914F915F9152DF05C0A2
:1018C00019F40EF0FDCE46CF01CF2ADFC8F39638CB
:1018D000C0F707F80F92E8942BE33AEA48EB5FE78A
:1018E0004EDF0F920F920F924DB75EB70F92C0D09E
:1018F000ECE8F0E016D04F915F91EF91FF91E59504
:10190000EE1FFF1F49F0FE57E0684427EE0F441F0B
:10191000FA95E1F74195550B32D00F9007FE26C09E
:101920000895DF93CF931F930F93FF92EF92DF926F
:101930007B018C01689405C0DA2EEF011EDFFE01E9
:10194000E894A5912591359145915591AEF3EF011C
:10195000FBDDFE019701A801DA9479F7DF90EF90A3
:10196000FF900F911F91CF91DF9108959B01AC01E2
:1019700060E070E080E89FE3AEC0A2CE14C1D0DE8C
:10198000E8F39923D9F3940F511DBBF391505040C4
:1019900094F059F0882332F0660F771F881F91501A
:1019A0005040C1F79E3F510544F7880F911D969511
:1019B000879597F908955F3FACF0983E9CF0BB2760
:1019C000869577956795B79508F4B1609395C1F7BB
:1019D000BB0F58F711F460FFE8CF6F5F7F4F8F4F59
:1019E0009F4FE3CFB8CE0EF0DEC070CE689468CEC5
:1019F00097DEC8F39923D1F3C6F3DF93CF931F93F8
:101A00000F93FF92C92FDD2788232AF02197660FB5
:101A1000771F881FDAF720E030E040E85FEB9FE3B4
:101A2000883920F0803E30F021968F777CDDE4EB22
:101A3000F0E003C078DDE1EEF0E073DF8B01BE0182
:101A4000EC01FB2E6F5771097595771F880B990B69
:101A5000FCDD28E132E741E35FE38FDEAF2D980143
:101A6000AE01FF900F911F91CF91DF916DDD3FCEC1
:101A7000FA01DC01AA0FBB1F9B01AC01BF5728F480
:101A800022273327442750781FC0B75188F4AB2F43
:101A90000024469537952795011CA395D2F3002085
:101AA00069F0220F331F441FB395DAF30DD03ACDFE
:101AB00061307105A0E88A07B94630F49B01AC019A
:101AC0006627772788279078309621F02083318306
:101AD0004283538308950CD00ACE02DE40F0F9DD34
:101AE00030F021F45F3F19F0EBCD511134CEEECD43
:101AF0000FDE98F39923C9F35523B1F3951B550BCA
:101B0000BB27AA2762177307840738F09F5F5F4FD0
:101B1000220F331F441FAA1FA9F333D00E2E3AF011
:101B2000E0E830D091505040E695001CCAF729D02B
:101B3000FE2F27D0660F771F881FBB1F261737077A
:101B40004807AB07B0E809F0BB0B802DBF01FF27AA
:101B500093585F4F2AF09E3F510568F0B1CDFBCD01
:101B60005F3FECF3983EDCF3869577956795B795E4
:101B7000F7959F5FC9F7880F911D9695879597F9FF
:101B80000895E1E0660F771F881FBB1F6217730778
:101B90008407BA0720F0621B730B840BBA0BEE1F8D
:101BA00088F7E09508959F3F31F0915020F4879594
:101BB00077956795B795880F911D9695879597F9B5
:101BC0000895DC0101C06D9341505040E0F7089545
:101BD000FB01DC014150504048F001900D92002083
:101BE000C9F701C01D9241505040E0F70895F894A4
:021BF000FFCF25
:101BF200020087003132333404FFFF59004E0043A4
:101C02006F756E746572436C6F636B776973650091
:101C1200546573745365635461736B005049525F2A
:101C22004465746563745F5461736B005049525428
:101C320061736B00496E69744C6F636B5461736BB3
:101C42000041542B524F4C453D4D0041542B4E41C7
:101C52004D453D416C6578546573740041542B5079
:101C6200494E383838380041542B524F4C453D5379
:061C72000049444C45004E
:00000001FF
